{
  "_format": "hh-sol-artifact-1",
  "contractName": "NFTToken",
  "sourceName": "contracts/ERC721.sol",
  "abi": [
    {
      "inputs": [],
      "stateMutability": "nonpayable",
      "type": "constructor"
    },
    {
      "inputs": [],
      "name": "InvalidShortString",
      "type": "error"
    },
    {
      "inputs": [
        {
          "internalType": "string",
          "name": "str",
          "type": "string"
        }
      ],
      "name": "StringTooLong",
      "type": "error"
    },
    {
      "anonymous": false,
      "inputs": [
        {
          "indexed": true,
          "internalType": "address",
          "name": "owner",
          "type": "address"
        },
        {
          "indexed": true,
          "internalType": "address",
          "name": "approved",
          "type": "address"
        },
        {
          "indexed": true,
          "internalType": "uint256",
          "name": "tokenId",
          "type": "uint256"
        }
      ],
      "name": "Approval",
      "type": "event"
    },
    {
      "anonymous": false,
      "inputs": [
        {
          "indexed": true,
          "internalType": "address",
          "name": "owner",
          "type": "address"
        },
        {
          "indexed": true,
          "internalType": "address",
          "name": "operator",
          "type": "address"
        },
        {
          "indexed": false,
          "internalType": "bool",
          "name": "approved",
          "type": "bool"
        }
      ],
      "name": "ApprovalForAll",
      "type": "event"
    },
    {
      "anonymous": false,
      "inputs": [],
      "name": "EIP712DomainChanged",
      "type": "event"
    },
    {
      "anonymous": false,
      "inputs": [
        {
          "indexed": true,
          "internalType": "address",
          "name": "previousOwner",
          "type": "address"
        },
        {
          "indexed": true,
          "internalType": "address",
          "name": "newOwner",
          "type": "address"
        }
      ],
      "name": "OwnershipTransferred",
      "type": "event"
    },
    {
      "anonymous": false,
      "inputs": [
        {
          "indexed": true,
          "internalType": "address",
          "name": "from",
          "type": "address"
        },
        {
          "indexed": true,
          "internalType": "address",
          "name": "to",
          "type": "address"
        },
        {
          "indexed": true,
          "internalType": "uint256",
          "name": "tokenId",
          "type": "uint256"
        }
      ],
      "name": "Transfer",
      "type": "event"
    },
    {
      "inputs": [
        {
          "internalType": "address",
          "name": "to",
          "type": "address"
        },
        {
          "internalType": "uint256",
          "name": "tokenId",
          "type": "uint256"
        }
      ],
      "name": "approve",
      "outputs": [],
      "stateMutability": "nonpayable",
      "type": "function"
    },
    {
      "inputs": [
        {
          "internalType": "address",
          "name": "owner",
          "type": "address"
        }
      ],
      "name": "balanceOf",
      "outputs": [
        {
          "internalType": "uint256",
          "name": "",
          "type": "uint256"
        }
      ],
      "stateMutability": "view",
      "type": "function"
    },
    {
      "inputs": [
        {
          "internalType": "uint256",
          "name": "id",
          "type": "uint256"
        },
        {
          "internalType": "string",
          "name": "name",
          "type": "string"
        },
        {
          "internalType": "bytes",
          "name": "signature",
          "type": "bytes"
        }
      ],
      "name": "check",
      "outputs": [
        {
          "internalType": "address",
          "name": "",
          "type": "address"
        }
      ],
      "stateMutability": "view",
      "type": "function"
    },
    {
      "inputs": [],
      "name": "eip712Domain",
      "outputs": [
        {
          "internalType": "bytes1",
          "name": "fields",
          "type": "bytes1"
        },
        {
          "internalType": "string",
          "name": "name",
          "type": "string"
        },
        {
          "internalType": "string",
          "name": "version",
          "type": "string"
        },
        {
          "internalType": "uint256",
          "name": "chainId",
          "type": "uint256"
        },
        {
          "internalType": "address",
          "name": "verifyingContract",
          "type": "address"
        },
        {
          "internalType": "bytes32",
          "name": "salt",
          "type": "bytes32"
        },
        {
          "internalType": "uint256[]",
          "name": "extensions",
          "type": "uint256[]"
        }
      ],
      "stateMutability": "view",
      "type": "function"
    },
    {
      "inputs": [
        {
          "internalType": "uint256",
          "name": "tokenId",
          "type": "uint256"
        }
      ],
      "name": "getApproved",
      "outputs": [
        {
          "internalType": "address",
          "name": "",
          "type": "address"
        }
      ],
      "stateMutability": "view",
      "type": "function"
    },
    {
      "inputs": [
        {
          "internalType": "address",
          "name": "owner",
          "type": "address"
        },
        {
          "internalType": "address",
          "name": "operator",
          "type": "address"
        }
      ],
      "name": "isApprovedForAll",
      "outputs": [
        {
          "internalType": "bool",
          "name": "",
          "type": "bool"
        }
      ],
      "stateMutability": "view",
      "type": "function"
    },
    {
      "inputs": [],
      "name": "name",
      "outputs": [
        {
          "internalType": "string",
          "name": "",
          "type": "string"
        }
      ],
      "stateMutability": "view",
      "type": "function"
    },
    {
      "inputs": [],
      "name": "owner",
      "outputs": [
        {
          "internalType": "address",
          "name": "",
          "type": "address"
        }
      ],
      "stateMutability": "view",
      "type": "function"
    },
    {
      "inputs": [
        {
          "internalType": "uint256",
          "name": "tokenId",
          "type": "uint256"
        }
      ],
      "name": "ownerOf",
      "outputs": [
        {
          "internalType": "address",
          "name": "",
          "type": "address"
        }
      ],
      "stateMutability": "view",
      "type": "function"
    },
    {
      "inputs": [],
      "name": "renounceOwnership",
      "outputs": [],
      "stateMutability": "nonpayable",
      "type": "function"
    },
    {
      "inputs": [
        {
          "internalType": "address",
          "name": "to",
          "type": "address"
        },
        {
          "internalType": "uint256",
          "name": "id",
          "type": "uint256"
        },
        {
          "internalType": "string",
          "name": "name",
          "type": "string"
        },
        {
          "internalType": "bytes",
          "name": "signature",
          "type": "bytes"
        }
      ],
      "name": "safeMint",
      "outputs": [],
      "stateMutability": "nonpayable",
      "type": "function"
    },
    {
      "inputs": [
        {
          "internalType": "address",
          "name": "from",
          "type": "address"
        },
        {
          "internalType": "address",
          "name": "to",
          "type": "address"
        },
        {
          "internalType": "uint256",
          "name": "tokenId",
          "type": "uint256"
        }
      ],
      "name": "safeTransferFrom",
      "outputs": [],
      "stateMutability": "nonpayable",
      "type": "function"
    },
    {
      "inputs": [
        {
          "internalType": "address",
          "name": "from",
          "type": "address"
        },
        {
          "internalType": "address",
          "name": "to",
          "type": "address"
        },
        {
          "internalType": "uint256",
          "name": "tokenId",
          "type": "uint256"
        },
        {
          "internalType": "bytes",
          "name": "data",
          "type": "bytes"
        }
      ],
      "name": "safeTransferFrom",
      "outputs": [],
      "stateMutability": "nonpayable",
      "type": "function"
    },
    {
      "inputs": [
        {
          "internalType": "address",
          "name": "operator",
          "type": "address"
        },
        {
          "internalType": "bool",
          "name": "approved",
          "type": "bool"
        }
      ],
      "name": "setApprovalForAll",
      "outputs": [],
      "stateMutability": "nonpayable",
      "type": "function"
    },
    {
      "inputs": [
        {
          "internalType": "bytes4",
          "name": "interfaceId",
          "type": "bytes4"
        }
      ],
      "name": "supportsInterface",
      "outputs": [
        {
          "internalType": "bool",
          "name": "",
          "type": "bool"
        }
      ],
      "stateMutability": "view",
      "type": "function"
    },
    {
      "inputs": [],
      "name": "symbol",
      "outputs": [
        {
          "internalType": "string",
          "name": "",
          "type": "string"
        }
      ],
      "stateMutability": "view",
      "type": "function"
    },
    {
      "inputs": [
        {
          "internalType": "uint256",
          "name": "tokenId",
          "type": "uint256"
        }
      ],
      "name": "tokenURI",
      "outputs": [
        {
          "internalType": "string",
          "name": "",
          "type": "string"
        }
      ],
      "stateMutability": "view",
      "type": "function"
    },
    {
      "inputs": [
        {
          "internalType": "address",
          "name": "from",
          "type": "address"
        },
        {
          "internalType": "address",
          "name": "to",
          "type": "address"
        },
        {
          "internalType": "uint256",
          "name": "tokenId",
          "type": "uint256"
        }
      ],
      "name": "transferFrom",
      "outputs": [],
      "stateMutability": "nonpayable",
      "type": "function"
    },
    {
      "inputs": [
        {
          "internalType": "address",
          "name": "newOwner",
          "type": "address"
        }
      ],
      "name": "transferOwnership",
      "outputs": [],
      "stateMutability": "nonpayable",
      "type": "function"
    }
  ],
  "bytecode": "0x6101606040523480156200001257600080fd5b506040518060400160405280600a81526020016953414b49422e5745423360b01b815250604051806040016040528060018152602001603160f81b8152506040518060400160405280600881526020016727232a2a37b5b2b760c11b815250604051806040016040528060038152602001624e544b60e81b81525081600090816200009e9190620002f4565b506001620000ad8282620002f4565b50620000bf9150839050600662000178565b61012052620000d081600762000178565b61014052815160208084019190912060e052815190820120610100524660a0526200015e60e05161010051604080517f8b73c3c69bb8fe3d512ecc4cf759cc79239f7b179b0ffacaa9a75d522b39400f60208201529081019290925260608201524660808201523060a082015260009060c00160405160208183030381529060405280519060200120905090565b60805250503060c0526200017233620001b1565b62000435565b60006020835110156200019857620001908362000203565b9050620001ab565b81620001a58482620002f4565b5060ff90505b92915050565b600880546001600160a01b038381166001600160a01b0319831681179093556040519116919082907f8be0079c531659141344cd1fd0a4f28419497f9722a3daafe3b4186f6b6457e090600090a35050565b600080829050601f815111156200023a578260405163305a27a960e01b8152600401620002319190620003c0565b60405180910390fd5b8051620002478262000410565b179392505050565b634e487b7160e01b600052604160045260246000fd5b600181811c908216806200027a57607f821691505b6020821081036200029b57634e487b7160e01b600052602260045260246000fd5b50919050565b601f821115620002ef57600081815260208120601f850160051c81016020861015620002ca5750805b601f850160051c820191505b81811015620002eb57828155600101620002d6565b5050505b505050565b81516001600160401b038111156200031057620003106200024f565b620003288162000321845462000265565b84620002a1565b602080601f831160018114620003605760008415620003475750858301515b600019600386901b1c1916600185901b178555620002eb565b600085815260208120601f198616915b82811015620003915788860151825594840194600190910190840162000370565b5085821015620003b05787850151600019600388901b60f8161c191681555b5050505050600190811b01905550565b600060208083528351808285015260005b81811015620003ef57858101830151858201604001528201620003d1565b506000604082860101526040601f19601f8301168501019250505092915050565b805160208083015191908110156200029b5760001960209190910360031b1b16919050565b60805160a05160c05160e051610100516101205161014051611cdb62000490600039600061066201526000610637015260006115930152600061156b015260006114c6015260006114f00152600061151a0152611cdb6000f3fe608060405234801561001057600080fd5b50600436106101215760003560e01c806384b0196e116100ad578063b88d4fde11610071578063b88d4fde1461025f578063c87b56dd14610272578063e811c9dd14610285578063e985e9c514610298578063f2fde38b146102ab57600080fd5b806384b0196e146102055780638da5cb5b1461022057806395d89b4114610231578063a22cb46514610239578063b55bc6171461024c57600080fd5b806323b872dd116100f457806323b872dd146101a357806342842e0e146101b65780636352211e146101c957806370a08231146101dc578063715018a6146101fd57600080fd5b806301ffc9a71461012657806306fdde031461014e578063081812fc14610163578063095ea7b31461018e575b600080fd5b6101396101343660046116c3565b6102be565b60405190151581526020015b60405180910390f35b610156610310565b6040516101459190611730565b610176610171366004611743565b6103a2565b6040516001600160a01b039091168152602001610145565b6101a161019c366004611778565b6103c9565b005b6101a16101b13660046117a2565b6104e3565b6101a16101c43660046117a2565b610514565b6101766101d7366004611743565b61052f565b6101ef6101ea3660046117de565b61058f565b604051908152602001610145565b6101a1610615565b61020d610629565b60405161014597969594939291906117f9565b6008546001600160a01b0316610176565b6101566106b2565b6101a161024736600461188f565b6106c1565b6101a161025a36600461196e565b6106d0565b6101a161026d3660046119ec565b610750565b610156610280366004611743565b610788565b610176610293366004611a48565b6107fc565b6101396102a6366004611ab5565b610811565b6101a16102b93660046117de565b61083f565b60006001600160e01b031982166380ac58cd60e01b14806102ef57506001600160e01b03198216635b5e139f60e01b145b8061030a57506301ffc9a760e01b6001600160e01b03198316145b92915050565b60606000805461031f90611ae8565b80601f016020809104026020016040519081016040528092919081815260200182805461034b90611ae8565b80156103985780601f1061036d57610100808354040283529160200191610398565b820191906000526020600020905b81548152906001019060200180831161037b57829003601f168201915b5050505050905090565b60006103ad826108b8565b506000908152600460205260409020546001600160a01b031690565b60006103d48261052f565b9050806001600160a01b0316836001600160a01b0316036104465760405162461bcd60e51b815260206004820152602160248201527f4552433732313a20617070726f76616c20746f2063757272656e74206f776e656044820152603960f91b60648201526084015b60405180910390fd5b336001600160a01b038216148061046257506104628133610811565b6104d45760405162461bcd60e51b815260206004820152603d60248201527f4552433732313a20617070726f76652063616c6c6572206973206e6f7420746f60448201527f6b656e206f776e6572206f7220617070726f76656420666f7220616c6c000000606482015260840161043d565b6104de8383610917565b505050565b6104ed3382610985565b6105095760405162461bcd60e51b815260040161043d90611b22565b6104de8383836109e3565b6104de83838360405180602001604052806000815250610750565b6000818152600260205260408120546001600160a01b03168061030a5760405162461bcd60e51b8152602060048201526018602482015277115490cdcc8c4e881a5b9d985b1a59081d1bdad95b88125160421b604482015260640161043d565b60006001600160a01b0382166105f95760405162461bcd60e51b815260206004820152602960248201527f4552433732313a2061646472657373207a65726f206973206e6f7420612076616044820152683634b21037bbb732b960b91b606482015260840161043d565b506001600160a01b031660009081526003602052604090205490565b61061d610b47565b6106276000610ba1565b565b60006060808280808361065d7f00000000000000000000000000000000000000000000000000000000000000006006610bf3565b6106887f00000000000000000000000000000000000000000000000000000000000000006007610bf3565b60408051600080825260208201909252600f60f81b9b939a50919850469750309650945092509050565b60606001805461031f90611ae8565b6106cc338383610c9e565b5050565b336106dc8484846107fc565b6001600160a01b0316146107245760405162461bcd60e51b815260206004820152600f60248201526e1d9bdd58da195c88125b9d985b1a59608a1b604482015260640161043d565b610732600980546001019055565b600061073d60095490565b90506107498582610d6c565b5050505050565b61075a3383610985565b6107765760405162461bcd60e51b815260040161043d90611b22565b61078284848484610d86565b50505050565b6060610793826108b8565b60006107aa60408051602081019091526000815290565b905060008151116107ca57604051806020016040528060008152506107f5565b806107d484610db9565b6040516020016107e5929190611b6f565b6040516020818303038152906040525b9392505050565b6000610809848484610e4c565b949350505050565b6001600160a01b03918216600090815260056020908152604080832093909416825291909152205460ff1690565b610847610b47565b6001600160a01b0381166108ac5760405162461bcd60e51b815260206004820152602660248201527f4f776e61626c653a206e6577206f776e657220697320746865207a65726f206160448201526564647265737360d01b606482015260840161043d565b6108b581610ba1565b50565b6000818152600260205260409020546001600160a01b03166108b55760405162461bcd60e51b8152602060048201526018602482015277115490cdcc8c4e881a5b9d985b1a59081d1bdad95b88125160421b604482015260640161043d565b600081815260046020526040902080546001600160a01b0319166001600160a01b038416908117909155819061094c8261052f565b6001600160a01b03167f8c5be1e5ebec7d5bd14f71427d1e84f3dd0314c0f7b2291e5b200ac8c7c3b92560405160405180910390a45050565b6000806109918361052f565b9050806001600160a01b0316846001600160a01b031614806109b857506109b88185610811565b806108095750836001600160a01b03166109d1846103a2565b6001600160a01b031614949350505050565b826001600160a01b03166109f68261052f565b6001600160a01b031614610a1c5760405162461bcd60e51b815260040161043d90611b9e565b6001600160a01b038216610a7e5760405162461bcd60e51b8152602060048201526024808201527f4552433732313a207472616e7366657220746f20746865207a65726f206164646044820152637265737360e01b606482015260840161043d565b826001600160a01b0316610a918261052f565b6001600160a01b031614610ab75760405162461bcd60e51b815260040161043d90611b9e565b600081815260046020908152604080832080546001600160a01b03199081169091556001600160a01b0387811680865260038552838620805460001901905590871680865283862080546001019055868652600290945282852080549092168417909155905184937fddf252ad1be2c89b69c2b068fc378daa952ba7f163c4a11628f55a4df523b3ef91a4505050565b6008546001600160a01b031633146106275760405162461bcd60e51b815260206004820181905260248201527f4f776e61626c653a2063616c6c6572206973206e6f7420746865206f776e6572604482015260640161043d565b600880546001600160a01b038381166001600160a01b0319831681179093556040519116919082907f8be0079c531659141344cd1fd0a4f28419497f9722a3daafe3b4186f6b6457e090600090a35050565b606060ff8314610c0d57610c0683610e6e565b905061030a565b818054610c1990611ae8565b80601f0160208091040260200160405190810160405280929190818152602001828054610c4590611ae8565b8015610c925780601f10610c6757610100808354040283529160200191610c92565b820191906000526020600020905b815481529060010190602001808311610c7557829003601f168201915b5050505050905061030a565b816001600160a01b0316836001600160a01b031603610cff5760405162461bcd60e51b815260206004820152601960248201527f4552433732313a20617070726f766520746f2063616c6c657200000000000000604482015260640161043d565b6001600160a01b03838116600081815260056020908152604080832094871680845294825291829020805460ff191686151590811790915591519182527f17307eab39ab6107e8899845ad3d59bd9653f200f220920489ca2b5937696c31910160405180910390a3505050565b6106cc828260405180602001604052806000815250610ead565b610d918484846109e3565b610d9d84848484610ee0565b6107825760405162461bcd60e51b815260040161043d90611be3565b60606000610dc683610fe1565b600101905060008167ffffffffffffffff811115610de657610de66118cb565b6040519080825280601f01601f191660200182016040528015610e10576020820181803683370190505b5090508181016020015b600019016f181899199a1a9b1b9c1cb0b131b232b360811b600a86061a8153600a8504945084610e1a57509392505050565b600080610e5985856110b9565b9050610e658184611126565b95945050505050565b60606000610e7b8361114a565b604080516020808252818301909252919250600091906020820181803683375050509182525060208101929092525090565b610eb78383611172565b610ec46000848484610ee0565b6104de5760405162461bcd60e51b815260040161043d90611be3565b60006001600160a01b0384163b15610fd657604051630a85bd0160e11b81526001600160a01b0385169063150b7a0290610f24903390899088908890600401611c35565b6020604051808303816000875af1925050508015610f5f575060408051601f3d908101601f19168201909252610f5c91810190611c72565b60015b610fbc573d808015610f8d576040519150601f19603f3d011682016040523d82523d6000602084013e610f92565b606091505b508051600003610fb45760405162461bcd60e51b815260040161043d90611be3565b805181602001fd5b6001600160e01b031916630a85bd0160e11b149050610809565b506001949350505050565b60008072184f03e93ff9f4daa797ed6e38ed64bf6a1f0160401b83106110205772184f03e93ff9f4daa797ed6e38ed64bf6a1f0160401b830492506040015b6d04ee2d6d415b85acef8100000000831061104c576d04ee2d6d415b85acef8100000000830492506020015b662386f26fc10000831061106a57662386f26fc10000830492506010015b6305f5e1008310611082576305f5e100830492506008015b612710831061109657612710830492506004015b606483106110a8576064830492506002015b600a831061030a5760010192915050565b60006107f57f5ac493843b824581c09f3ff4bb74f2eb3531edee6ee6f36145726efc798eb68284848051906020012060405160200161110b939291909283526020830191909152604082015260600190565b604051602081830303815290604052805190602001206112fd565b6000806000611135858561132a565b915091506111428161136f565b509392505050565b600060ff8216601f81111561030a57604051632cd44ac360e21b815260040160405180910390fd5b6001600160a01b0382166111c85760405162461bcd60e51b815260206004820181905260248201527f4552433732313a206d696e7420746f20746865207a65726f2061646472657373604482015260640161043d565b6000818152600260205260409020546001600160a01b03161561122d5760405162461bcd60e51b815260206004820152601c60248201527f4552433732313a20746f6b656e20616c7265616479206d696e74656400000000604482015260640161043d565b6000818152600260205260409020546001600160a01b0316156112925760405162461bcd60e51b815260206004820152601c60248201527f4552433732313a20746f6b656e20616c7265616479206d696e74656400000000604482015260640161043d565b6001600160a01b038216600081815260036020908152604080832080546001019055848352600290915280822080546001600160a01b0319168417905551839291907fddf252ad1be2c89b69c2b068fc378daa952ba7f163c4a11628f55a4df523b3ef908290a45050565b600061030a61130a6114b9565b8360405161190160f01b8152600281019290925260228201526042902090565b60008082516041036113605760208301516040840151606085015160001a611354878285856115e9565b94509450505050611368565b506000905060025b9250929050565b600081600481111561138357611383611c8f565b0361138b5750565b600181600481111561139f5761139f611c8f565b036113ec5760405162461bcd60e51b815260206004820152601860248201527f45434453413a20696e76616c6964207369676e61747572650000000000000000604482015260640161043d565b600281600481111561140057611400611c8f565b0361144d5760405162461bcd60e51b815260206004820152601f60248201527f45434453413a20696e76616c6964207369676e6174757265206c656e67746800604482015260640161043d565b600381600481111561146157611461611c8f565b036108b55760405162461bcd60e51b815260206004820152602260248201527f45434453413a20696e76616c6964207369676e6174757265202773272076616c604482015261756560f01b606482015260840161043d565b6000306001600160a01b037f00000000000000000000000000000000000000000000000000000000000000001614801561151257507f000000000000000000000000000000000000000000000000000000000000000046145b1561153c57507f000000000000000000000000000000000000000000000000000000000000000090565b6115e4604080517f8b73c3c69bb8fe3d512ecc4cf759cc79239f7b179b0ffacaa9a75d522b39400f60208201527f0000000000000000000000000000000000000000000000000000000000000000918101919091527f000000000000000000000000000000000000000000000000000000000000000060608201524660808201523060a082015260009060c00160405160208183030381529060405280519060200120905090565b905090565b6000807f7fffffffffffffffffffffffffffffff5d576e7357a4501ddfe92f46681b20a083111561162057506000905060036116a4565b6040805160008082526020820180845289905260ff881692820192909252606081018690526080810185905260019060a0016020604051602081039080840390855afa158015611674573d6000803e3d6000fd5b5050604051601f1901519150506001600160a01b03811661169d576000600192509250506116a4565b9150600090505b94509492505050565b6001600160e01b0319811681146108b557600080fd5b6000602082840312156116d557600080fd5b81356107f5816116ad565b60005b838110156116fb5781810151838201526020016116e3565b50506000910152565b6000815180845261171c8160208601602086016116e0565b601f01601f19169290920160200192915050565b6020815260006107f56020830184611704565b60006020828403121561175557600080fd5b5035919050565b80356001600160a01b038116811461177357600080fd5b919050565b6000806040838503121561178b57600080fd5b6117948361175c565b946020939093013593505050565b6000806000606084860312156117b757600080fd5b6117c08461175c565b92506117ce6020850161175c565b9150604084013590509250925092565b6000602082840312156117f057600080fd5b6107f58261175c565b60ff60f81b881681526000602060e08184015261181960e084018a611704565b838103604085015261182b818a611704565b606085018990526001600160a01b038816608086015260a0850187905284810360c0860152855180825283870192509083019060005b8181101561187d57835183529284019291840191600101611861565b50909c9b505050505050505050505050565b600080604083850312156118a257600080fd5b6118ab8361175c565b9150602083013580151581146118c057600080fd5b809150509250929050565b634e487b7160e01b600052604160045260246000fd5b600082601f8301126118f257600080fd5b813567ffffffffffffffff8082111561190d5761190d6118cb565b604051601f8301601f19908116603f01168101908282118183101715611935576119356118cb565b8160405283815286602085880101111561194e57600080fd5b836020870160208301376000602085830101528094505050505092915050565b6000806000806080858703121561198457600080fd5b61198d8561175c565b935060208501359250604085013567ffffffffffffffff808211156119b157600080fd5b6119bd888389016118e1565b935060608701359150808211156119d357600080fd5b506119e0878288016118e1565b91505092959194509250565b60008060008060808587031215611a0257600080fd5b611a0b8561175c565b9350611a196020860161175c565b925060408501359150606085013567ffffffffffffffff811115611a3c57600080fd5b6119e0878288016118e1565b600080600060608486031215611a5d57600080fd5b83359250602084013567ffffffffffffffff80821115611a7c57600080fd5b611a88878388016118e1565b93506040860135915080821115611a9e57600080fd5b50611aab868287016118e1565b9150509250925092565b60008060408385031215611ac857600080fd5b611ad18361175c565b9150611adf6020840161175c565b90509250929050565b600181811c90821680611afc57607f821691505b602082108103611b1c57634e487b7160e01b600052602260045260246000fd5b50919050565b6020808252602d908201527f4552433732313a2063616c6c6572206973206e6f7420746f6b656e206f776e6560408201526c1c881bdc88185c1c1c9bdd9959609a1b606082015260800190565b60008351611b818184602088016116e0565b835190830190611b958183602088016116e0565b01949350505050565b60208082526025908201527f4552433732313a207472616e736665722066726f6d20696e636f72726563742060408201526437bbb732b960d91b606082015260800190565b60208082526032908201527f4552433732313a207472616e7366657220746f206e6f6e20455243373231526560408201527131b2b4bb32b91034b6b83632b6b2b73a32b960711b606082015260800190565b6001600160a01b0385811682528416602082015260408101839052608060608201819052600090611c6890830184611704565b9695505050505050565b600060208284031215611c8457600080fd5b81516107f5816116ad565b634e487b7160e01b600052602160045260246000fdfea2646970667358221220af52124a9fbe83673bf133ec52ec3d890e1ffb427549f357aa4636f9fae9e0e964736f6c63430008140033",
  "linkReferences": {},
  "deployedLinkReferences": {}
}